:020000040800F2
:10000000A84D002099010008A1010008A3010008E3
:10001000A5010008A7010008A901000800000000D0
:10002000000000000000000000000000AB0100081C
:10003000AD01000800000000AF010008B101000898
:10004000B3010008B3010008B3010008030600086B
:10005000B3010008B3010008B3010008B3010008B0
:10006000B3010008B3010008B3010008B3010008A0
:10007000B3010008B3010008B3010008B301000890
:10008000B3010008B3010008B3010008B301000880
:100090008F0B0008B3010008B3010008B30100088A
:1000A000B3010008B3010008B3010008B301000860
:1000B000B3010008B3010008B3010008B301000850
:1000C000B3010008B3010008B3010008B301000840
:1000D000B3010008B3010008B3010008B301000830
:1000E000B3010008B3010008B301000800F002F8F2
:1000F00000F043F80AA090E8000C82448344AAF17F
:100100000107DA4501D100F038F8AFF2090EBAE87C
:100110000F0013F0010F18BFFB1A43F0010318473B
:10012000900F0000B00F0000103A24BF78C878C1CB
:10013000FAD8520724BF30C830C144BF04680C60ED
:10014000704700000023002400250026103A28BF35
:1001500078C1FBD8520728BF30C148BF0B60704739
:10016000752900F0D985002070471FB59DE8030070
:1001700000F04CFE1FBD10B510BD00F01BFF114676
:10018000FFF7F3FF00F0DAF800F039FF03B4FFF7F0
:10019000F2FF03BC00F066FF0948804709480047AA
:1001A000FEE7FEE7FEE7FEE7FEE7FEE7FEE7FEE727
:1001B000FEE7FEE704480549054A064B7047000084
:1001C000D9010008ED000008A8010020A84D00207A
:1001D000A8490020A84900200CB500224D480092F3
:1001E0000192016841F00101016041684A4B1940E8
:1001F00041600168494B19400160016821F4802188
:100200000160416821F4FE0141604FF41F018160EB
:10021000016841F4803101604FF4A063016801F48A
:10022000003101910099491C0091019911B900997F
:100230009942F3D1016889033DD5012101913849E3
:100240000A6842F010020A600A6822F003020A609B
:100250000A6842F002020A604168416041684160F8
:10026000416841F480614160416841F4004141606E
:10027000416821F47C114160416841F4E81141601A
:10028000016841F08071016001688901FCD5416815
:1002900021F003014160416841F002014160416881
:1002A000C1F381010229FAD11E4A4FF000611160A9
:1002B0003D2181610CBD0192F6E71B48016821F0E8
:1002C0000F010160016841F008010160174A012136
:1002D000C2F8801116494A68164B1A404A604A68AB
:1002E000154B1A434A60016821F47061016001688E
:1002F00041F4407101600C490C310A6822F004029B
:100300000A60016821F0F0110160016841F03011CC
:1003100001607047001002400C00FFF8FFFFF6FE7E
:100320000020024008ED00E00008014000002142EA
:10033000001001400FFFF0FF40000300FFF7BDFF7A
:1003400000F01CF900F09CF900F07EF9DFF86CA1D8
:100350005B4F5C4C5C4E5D4D4AF6AA294FF000089D
:10036000CAF80090A068C00701D0C4F80880A0684F
:10037000800712D5A06820F00200A0605448D0F891
:10038000240108B100F018FB2068401C2060D6F85A
:10039000940180F00100C6F89401A068C005DFD583
:1003A000A06820F48070A0602878C0073ED045483F
:1003B0000C3000F0F2FA2061E16819B3012931D064
:1003C00002292FD003292DD060610268414B22F011
:1003D0000042A2EB030C9A4242D016DC3E4951186F
:1003E00055D03E4AD14238D14068C0194BD03C4923
:1003F000401817D03B49C8424FF0000141D1314865
:10040000733046E0002138A043E0384A1CEB02027A
:1004100042D0374BDA4220D14FF47A72001D091FC7
:1004200000F048FA0021084600F076FA28788007A4
:1004300009D5D6F8840180F00100C6F884010021B6
:10044000084600F01AFA2878400789D500F0BDFA6E
:10045000002128A000F011FA82E700212BA018E06B
:100460004068C01909D03049C8424FF0000102D19C
:10047000144818300DE02DA00BE012480021613027
:1004800007E030A005E00F480021533001E081680B
:10049000406800F0F2F9C5E760684218121F626018
:1004A000FD29BFD22CA1344800F0EEFB00213248D8
:1004B00000F0E3F9C4F80480B4E700000030004025
:1004C000B2BEB2BA00000020000021428900002024
:1004D000000022424445563EB3BAB2C10002F8FFC2
:1004E00000F8FAF3F80300FE00000000FEFB09F933
:1004F000FAF9FCF446454544206672616D65204377
:100500005243206572726F7221000000556E6B6E4F
:100510006F776E20494E54455246414345206164F1
:100520006472657373000000FAFBF9F0556E6B6E30
:100530006F776E2044455649434520726571756555
:1005400073740000556E6B6E6F776E204D435520AF
:1005500072657175657374004F6B212046696C6517
:100560002072656365697665642028257520427967
:100570007465732900000000080100202E48C1693D
:1005800041F0C051C1612D490A6842F480720A608D
:100590002B490A889206FCD510220A80026A42F48E
:1005A00080320262026A22F480320262026A42F4FB
:1005B00040720262026A42F400420262204A002053
:1005C000121D10801E4B4FF2244208331A801C4A21
:1005D00014321080121D1080194A0120121F108041
:1005E000088820F01000088008880007FCD50888DB
:1005F0008006FCD54FF0E0210820C1F80001002062
:1006000070470F480188C907018808D021F001010F
:1006100001800C48016841F00201016070478907C0
:10062000018802D521F0020104E04907F6D50188CE
:1006300021F004010180704700100240007000406A
:1006400004280040080000200B48416A41F00101E5
:100650004162416A8907FCD5084845F2555101605D
:100660000121416040F65F1181604AF6AA210160D4
:100670004CF6CC4101607047001002400030004051
:1006800070B5012005054FF0E0260021C6F8805125
:10069000FB4BC205DA61FB4A1060101D01600015BA
:1006A0001060F94C206D08B100F0C7FAFF2000F08F
:1006B00095FA2065F44808382061C6F8005170BDED
:1006C00010B5F24C00F00F0254F82230000605D5A8
:1006D00001F03000584048F6BF7104E001F440508A
:1006E00058404BF68F71084044F8220010BD03E0DB
:1006F00010F8013B1A44D2B2491EF9D2D043C0B21D
:1007000070472DE9F0470388E14A002502EB031CFE
:10071000FF27DCF80040DF4ADCF8086002EB440405
:1007200002EB4602D84EA9460A3E51B38168B9B1E0
:10073000C168A9B182880D46AA4200D2154600219F
:100740006A1C06E08668368840C48668B61C8660E7
:10075000491CB1EB520FF5D3C168491BC1600AE0D7
:10076000C0F80C90C0F808902BB1012B74D97078A8
:1007700040F002006FE0CCF8045043F080003021DC
:1007800077E0DCF80C10C469C1F30905A5426BD908
:10079000D0F810A0D0F814C00AEB0C0183B12D1BC7
:1007A00004F00108640808EB84042244BCF1000F43
:1007B00006D09AF80070A7EB0C04AC4200D2254694
:1007C0002C4638E0012C04D090F81CC05FEACC7CA9
:1007D00011D012F801C901F801C9D0F814C0641E83
:1007E0000CF1010CC0F814C0D0F81CC00CF1010CC5
:1007F000C0F81CC010E0B2F800C0A1F800C0D0F8EA
:1008000014C0A41E0CF1020CC0F814C0D0F81CC017
:100810000CF1020CC0F81CC05BB1D0F814C0BCF1E4
:10082000030F06D207693F78A7EB0C0CA44500D252
:100830006446891C121D002CC4D19BB197B141693B
:10084000B94211D300690022FFF751FF00287078E8
:1008500005D040F0040070700020BDE8F08740F043
:100860000100F8E7C0F81490C0F81C904FF4405114
:100870001846FFF725FF2846EFE770B504008248C9
:10088000A0F10A00427822F0020242707E4D06D0AA
:10089000A86C68B919B9204600F07AFA411CAC641A
:1008A000E9642CB1BDE8704077480121403028E769
:1008B000002070BD2DE9F041734D06460A3D687871
:1008C00020F002006870704F40F22B2002FB00F411
:1008D000B86C00E0641E08B1002CFBD1CEB1C4B1ED
:1008E00019B9304600F054FA411CBE646648F964F8
:1008F00001214030FFF705FF00E0641E6978890799
:1009000001D4002CF9D1697821F002016970002C22
:1009100000D10020BDE8F081F0B55B4A05462C46C9
:10092000106D401C01B9FD21574E00230A3E35B918
:100930001FE080C880C4576D3F1F5765091F576D62
:10094000052F0AD90329F4D807E010F8017B04F831
:10095000017B576D7F1E5765491E576D022F02D9C7
:100960000029F2D102E0506D022802D0506D08B18A
:1009700004E05365707820F0050070704248002153
:100980004030FFF7BEFE30B9707820B142480168B0
:1009900041F480710160601BF0BD3B4A38B1516D7C
:1009A0000160022901D9891E00E000210160106D5B
:1009B000002800D0401C70473349334860318162C1
:1009C0001421C162012120309BE62F493E20C865D9
:1009D00000210846A0E72C4A10B5083A2A4BD078E7
:1009E000012807D0022809D0032814D12B48002160
:1009F00092780BE02A48986012200BE028481230C9
:100A00009860432006E00478491C20448A42FAD8C2
:100A100098600078D86010BD2DE9F04FDFF86C8049
:100A2000044658F82460184ADFF85CA03004AAF1A4
:100A3000080A02EB4415A2F10A0751D558F8241010
:100A400040F68F73194048F8241030053CD54FF01C
:100A5000000B9146C2F814B028465946FFF751FEE4
:100A6000C9F80CB09AF80000D44610F0600F26D1F7
:100A70009CF80100052815D0062820D116E00000BA
:100A800000100240405C004092000020005C0040EA
:100A900000600040006000400800002026110008AF
:100AA000D01000089AF80200387008E0FFF793FFB2
:100AB000D9F80C10BCF80600814200D9E860012189
:100AC0004148FFF71EFE0BE028460021FFF719FE04
:100AD00030B9787820B13D48016841F480710160F7
:100AE00030061ED558F8241048F60F72114048F809
:100AF000241044B99AF80000000604D43878344928
:100B000040F08000086028460121FFF7FAFD002828
:100B100007D17878002804D02C48016841F480710E
:100B20000160BDE8F08F2DE9F04329490020302312
:100B3000083906460860264A4FF404410C3A116011
:100B40002349091D0860234FDFF87CC0DFF8889037
:100B500043F2300807EB0012136056600CEB4011B3
:100B60008C8823449360CC886502D5600A884988C4
:100B700023440A4342EA080249F82020401C80B27C
:100B80000328E7D3124980200860BDE8F0831048AD
:100B9000083801684905016803D521F480610160C6
:100BA000C1E70904016806D521F40041016000682D
:100BB00000F00F0030E7890403D5016821F40051EB
:100BC00000E0002101607047920000200800002032
:100BD0004C5C004000600040005C004070B5064680
:100BE00000F0F8F8056806F10B0020F00704B442A5
:100BF0009CBF002070BD2B466A68BAB11068A04245
:100C000010D304F1080188423CBF5068586007D3F4
:100C10005168101941601168091B01605860146027
:100C2000101D70BD13465268002AE7D121462846A0
:100C300000F0D8F80028DED170BD70B50446051F5D
:100C400000F0C8F80068002C14BF446870BD002C88
:100C500018BFAC423CBF20466468F8D301680A184C
:100C6000AA4218BF456003D12A68054611440160B5
:100C700028684119A1421CBF6C6070BD6168696041
:100C800021680844286070BD0FB41CB5074B06AA44
:100C90007B4469460090059800F04DF900206946B4
:100CA00000F05CF91CBC5DF814FB0000C9020000F8
:100CB0002DE9F0410E460446002020622046E168FE
:100CC000884730B3252805D0D4E901219047206A10
:100CD000401CF2E7E168204600278847050018D04D
:100CE000A5F14100192802D820354FF4006732469B
:100CF000294620462760FFF733FA40B1012804D087
:100D0000F61D26F007060836D8E7361DD6E7284632
:100D1000DAE7206ABDE8F0812DE9F04106460024BB
:100D200010687529314616A510D0AFF30080002851
:100D300002DA404213A507E031688A0701D512A5FF
:100D400002E0490704D511A5012401E0AFF30080BA
:100D500000210A2206F1240709E0B0FBF2FCB0FBF7
:100D6000F2F302FB1C00303078541846491C00286E
:100D7000F3D123462A463046BDE8F04100F07CB866
:100D8000000000002D0000002B00000020000000EB
:100D900010B5431C02E010F8011B71B18107FAD1B4
:100DA0004FF0013202C88C1A8C4314EAC211F9D0F8
:100DB000C01A0A0603D0C01E10BDC01A10BD0A0416
:100DC00001D0801E10BD0902FCD0401E10BD70472E
:100DD00070477047004870475001002070477047C7
:100DE0007047704738B504460A4600206946AFF39D
:100DF0000080002808BF38BD02460099204600F058
:100E0000B7F8012038BD012000F0CCB8F8B5AFF339
:100E10000080054600200C46102000BF0646A81999
:100E2000A0420DD9324669460020AFF3008007008A
:100E300008BF00F0B7F80098A04218BF0546C419D3
:100E4000FFF7C8FF05600746F01D20F007004619B0
:100E5000284600F00AF8B44208BFF8BDA21B31468C
:100E60003868BDE8F84000F083B800210160C0E9AF
:100E700001107047102070472DE9F0470D46994644
:100E80009246044600F124080168880604D5E0690A
:100E900021F01001216000E00120A84201DD471B84
:100EA00000E00027A1697A1902EB0900081AA06185
:100EB0002078C00602D42046AFF30080002608E068
:100EC000D4E901211AF806009047206A401C761CDC
:100ED00020624E45F4DB2078C0060AD52046AFF3E9
:100EE000008006E0D4E9012130209047206A401CB0
:100EF0002062381EA7F10107F4DC07E0D4E90121E4
:100F000018F805009047206A401C2062281EA5F1B1
:100F10000105F3DC2046AFF300802078000602D5FF
:100F20000220BDE8F0870120FBE7000001694A1CB0
:100F300002610878704700B58FB0CDE9013100211A
:100F4000059105497944CDE9031011466846FFF73C
:100F5000AFFE0FB000BD0000E5FFFFFF0A6802F81A
:100F6000010B0A60704700000048704748010020EC
:100F7000034640688C46002818BF88423CBF0346A1
:100F80004068F8D318681844884207D00CF1030071
:100F900020F00700001D411A521A0146081D0A6080
:100FA000FFF74BBE10B500F035F8BDE8104000F07B
:100FB0002CB870477546FFF7D7FFAE460500694667
:100FC000534620F00700854618B020B5FFF7F2F829
:100FD000BDE820404FF000064FF000074FF000083A
:100FE0004FF0000B21F00701AC46ACE8C009ACE8BB
:100FF000C009ACE8C009ACE8C0098D46704704469A
:10100000AFF300802046FFF7C1F8002801D000F0C0
:1010100029B8704710B5012805D0002103A000F0C1
:1010200027F8012010BD09A1F8E7000053494752F5
:10103000544D454D3A204F7574206F6620686561A8
:1010400070206D656D6F7279000000003A20486570
:101050006170206D656D6F727920636F727275704B
:101060007465640001491820ABBEFEE7260002004B
:1010700070B505460C460A2000E06D1C00F011F822
:1010800035B128780028F8D102E0641C00F009F896
:1010900014B120780028F8D1BDE870400A20AFF3E1
:1010A000008008B569468DF800000320ABBE08BD7E
:1010B000B411000800000020080100002801000809
:1010C000BC12000808010020A04C000044010008E8
:1010D0001201100102000008AAAAEDFE0827010271
:1010E00003010902430002010080320904000001EB
:1010F000020200040524001001052401000104245B
:1011000002020524060001070581030A00640904A0
:101110000100020A000005070582023E00000705E3
:1011200002023E000000040309042A0353005A008F
:10113000200065006C0065006300740072006F00A1
:101140006E00690063007300200063006F0072008E
:1011500070002E001C035500530042002000460082
:10116000650065006400200050006F00720074008C
:101170001A0330003100320033002D0034003500F6
:10118000360037002D0038003900160343004400B4
:10119000430020004400650076006900630065009C
:1011A0001203430044004300200044006100740027
:1011B00061000000000000000000000000000000CE
:1011C0000000000000000000000000005255532005
:1011D0002A20E7E4E5F1FC20F2E5EAF1F220EDE077
:1011E00020F0F3F1F1EAEEEC20FFE7FBEAE520E284
:1011F00020EAEEE4E8F0EEE2EAE520415343494913
:10120000202A205255530053544D33324631303347
:101210005242543600546573742053544D33322077
:10122000646576696365004669726D7761726520F1
:1012300076657273696F6E20312E300000000000F9
:10124000000000000000000000020800080000008C
:101250000000000000000000000000000000080086
:10126000000000000000010000060A00000000006D
:10127000000000000000000000000000000000006E
:10128000000000000000020000003E003E000000E0
:101290000000000000000000000000000000FF004F
:1012A000000000000000A120000000000200020079
:0C12B000A120000000000200000000006F
:04000005080000ED02
:00000001FF
