:020000040800F2
:10000000084D002091010008990100089B0100089B
:100010009D0100089F010008A101000800000000E8
:10002000000000000000000000000000A301000824
:10003000A501000800000000A7010008A9010008B0
:10004000AB010008AB010008AB010008D7040008B1
:10005000AB010008AB010008AB010008AB010008D0
:10006000AB010008AB010008AB010008AB010008C0
:10007000AB010008AB010008AB010008AB010008B0
:10008000AB010008AB010008AB010008AB010008A0
:10009000E70A0008AB010008AB010008AB0100084B
:1000A000AB010008AB010008AB010008AB01000880
:1000B000AB010008AB010008AB010008AB01000870
:1000C000AB010008AB010008AB010008AB01000860
:1000D000AB010008AB010008AB010008AB01000850
:1000E000AB010008AB010008AB01000800F002F80A
:1000F00000F03EF80AA090E8000C82448344AAF184
:100100000107DA4501D100F033F8AFF2090EBAE881
:100110000F0013F0010F18BFFB1A43F0010318473B
:10012000240D0000440D0000103A24BF78C878C1A7
:10013000FAD8520724BF30C830C144BF04680C60ED
:10014000704700000023002400250026103A28BF35
:1001500078C1FBD8520728BF30C148BF0B60704739
:100160001FB59DE8030000F06BFD1FBD10B510BD6D
:1001700000F0EAFD1146FFF7F3FF00F015F900F07B
:1001800008FE03B4FFF7F2FF03BC00F035FE0000E9
:100190000948804709480047FEE7FEE7FEE7FEE71B
:1001A000FEE7FEE7FEE7FEE7FEE7FEE70448054957
:1001B000054A064B70470000D1010008ED00000819
:1001C00008010020084D00200849002008490020AF
:1001D0000CB50020019000906848006840F00100D4
:1001E00066490860084640686549084063494860B8
:1001F000084600686349084060490860084600688E
:1002000020F4802008600846406820F4FE00486022
:100210004FF41F0088600846006840F48030086092
:1002200000BF5648006800F4003000900198401C60
:100230000190009818B90198B0F5A06FF1D14F481E
:10024000006810F4003F02D00120009001E000207F
:1002500000900098012847D14B48006840F01000FA
:10026000494908600846006820F003000860084615
:10027000006840F002000860404840683F4948601C
:100280000846406848600846406840F4806048601E
:100290000846406840F4004048600846406820F442
:1002A0007C1048600846406840F4E8104860084602
:1002B000006840F08070086000BF3048006810F0AF
:1002C000007FFAD02D48406820F003002B49486099
:1002D0000846406840F00200486000BF2748406878
:1002E00000F00C000828F9D14FF0006027490860A1
:1002F0002248406940F00100204948614FF4000065
:10030000C8613D2088610CBD2148006820F00F00C5
:100310001F4908600846006840F008000860012096
:100320001C4908601C4840681C4900EA01001A4941
:100330004860084640681A4940EA0100164948608A
:100340001348006820F4706011490860084600688E
:1003500040F4407008601348006820F00400114920
:1003600008600B48006820F0F01009490860084652
:10037000006840F030100860704700000010024034
:100380000C00FFF8FFFFF6FE0020024008ED00E041
:100390000008014080012142001001400FFFF0FFE2
:1003A000400003000C080140FFF7AEFF00F038F8F2
:1003B00000F0E4F8012000F099FAFE2000F0D2FBF2
:1003C00011490860FE2000F0CDFB1049086000F0E4
:1003D000B5F800200E49086015E04AF6AA200D493C
:1003E00008600B48006810F0020F0CD00A48006843
:1003F00080F001000949C1F884010548006820F037
:10040000020003490860E8E71400002018000020FB
:1004100010000020003000408401214200002142F1
:100420004248C06940F0C0504049C8614048006837
:1004300040F480703E49086000BF3E48008810F0DC
:10044000200FFAD010203B4908803848006A40F459
:100450008030364908620846006A20F4803008621D
:100460000846006A40F4407008620846006A40F49A
:100470000040086200202F49091D08804FF22440E7
:10048000091D088000202B4914310880091D0880AF
:1004900001202849091F0880081D008820F010004D
:1004A000091D088000BF2348008810F0080FFAD00B
:1004B00000BF2048008810F0200FFAD0032001214F
:1004C000814042094FF0E02303EB8202C2F80011A1
:1004D00000BF002070471748008810F0010F0CD0B3
:1004E0001448008820F00100124908801248006872
:1004F00040F002001049086016E00E48008810F035
:10050000020F06D00B48008820F00200094908803D
:100510000AE00848008810F0040F05D0054800885C
:1005200020F00400034908807047000000100240DA
:100530000070004004280040100000200D48406A70
:1005400040F001000B49486200BF0A48406A10F0C1
:10055000020FFAD045F25550074908600120486063
:1005600040F65F1088604AF6AA2008604CF6CC403E
:100570000860704700100240003000400120F74939
:1005800008600020091D08600815091F0860142074
:100590000121814042094FF0E02303EB8202C2F8BF
:1005A000001100BF7047002090210022EB4B1B1D63
:1005B0001A604FF404421B1F1A600022E74B1033ED
:1005C0001A6031E0E64A02EB001211600022E44BAF
:1005D00003EB00135A60E34A02EB40129288114485
:1005E000DF4A02EB00129160DE4A02EB4012D28831
:1005F0005202DB4B03EB0013DA60DA4A02EB4012E3
:10060000D2881144D74A02EB40121288D54B03EB33
:1006100040135B881A4342F4405242F03002D24BFE
:1006200043F82020421C90B20328CBDBCB4A0C328B
:10063000126842F08002C94B0C331A60704730B523
:1006400000F00F02C84C54F8223010F0800F09D08F
:1006500001F030045C4048F6BF752C40C24D45F8AF
:10066000224008E001F440545C404BF68F752C406A
:10067000BD4D45F8224030BD10B5034603E013F8E8
:10068000014BA018C2B20800A1F10101F7D1D0437B
:10069000C0B210BD2DE9F04F044689460025A8469A
:1006A0002688AF4800EB06108068B049022202FBA2
:1006B000001AAB4800EB0610006802FB001BB9F102
:1006C000000F2BD0A068E0B1E068D0B1E068A1884D
:1006D000884201D9A58800E0E568002709E0A06804
:1006E0000088CBF800000BF1040BA068801CA06010
:1006F0007F1C681CB7EB500FF1D3E068401BE06033
:1007000002E00020A060E060954800EB0610456024
:1007100046F080003021FFF792FF6CE0904800EB3C
:100720000610C068C0F30805206920B1606928443C
:10073000E169884202D900254FF0FF08C5B10027C2
:1007400009E0BAF80000216908800AF1040A20696A
:10075000801C20617F1C681CB7EB500FF1D315F093
:10076000010F02D02069401E206160692844606149
:10077000AEB36DB97E48007810EA080F03D00020B0
:100780006061BDE8F08F7A48007840BB0020F8E750
:100790007748007820B3A06990F800807548007809
:1007A00058B1002073490870E069404502D3B8F1A0
:1007B000FE0F02DD00206061E3E76069404515D36C
:1007C000A8F10101A0690022FFF756FF216911F885
:1007D000011C884201D0002060610020D1E705E0C3
:1007E0006069E169884201D10020CAE74FF44051B5
:1007F0003046FFF724FF2846C3E770B504460D4690
:100800001646584800EB4410806808B1002070BDBF
:1008100025B11EB9284600F0D4F9461C514800EB1A
:10082000441085604F4800EB4410C6604D4901EB11
:1008300044100121FFF72EFFE9E710B504464E48AA
:1008400004810146474881621421C16201212030A0
:10085000FFF720FF10BD70B504460E46154606B3DF
:10086000404800EB441086613E4800EB4410C561EF
:100870003C4800EB4410066100203A4901EB44116A
:10088000486144B13D48006820F480703B490860ED
:100890000120384908704FF440512046FFF7CFFE41
:1008A0001FE0E5B1002028603148007888B12D486C
:1008B00000EB44104069022813D32A4800EB44108F
:1008C0004069801E2860274800EB44108069401C66
:1008D00070BD244800EB44104069286001E000200E
:1008E000F6E7204800EB44108069F1E720490870E2
:1008F0007047234A127812F01F0202D0012A2BD12E
:1009000026E01F4AD278012A04D0022A08D0032AFE
:100910001CD10BE01B4A134B9A601222DA6015E0DF
:10092000194A104B9A604322DA600FE01748002101
:1009300002E002781044491C114A92788A42F8D8A1
:10094000084A90600278074BDA6000BF00BF03E0FE
:1009500000BF00BF00BF00BF00BF7047405C004049
:100960000060004028000020005C00400060004063
:100970009D0000209E000020890000201000002023
:100980009F000020640E0008760E0008BA0E0008D2
:1009900030B504466D4850F8245015F4004F74D01B
:1009A00050F8240040F68F710840684941F824004F
:1009B00015F4006F5BD0082265492046FFF74BFF16
:1009C000644901EB44100021FFF764FE00206149F7
:1009D00001EB441188605E480078C0F3411020B1FB
:1009E00001282ED002283AD138E0594840780C2806
:1009F00025D2DFE800F00607240824090E1F202175
:100A000022231CE01BE01AE051488078524908700C
:100A100015E0FFF76EFF4F4800EB4410C0684C49EB
:100A2000C988884205D94A48C0884A4901EB44111F
:100A3000C86004E003E002E001E000E000BF00BFA6
:100A40000DE04348007800F01F00012802D0022882
:100A500002D100E000E000BF00BF00E000BF00BF27
:100A60003C4901EB44100121FFF714FE0DE0394928
:100A700001EB44100021FFF70DFE30B92CB13748CF
:100A8000006840F480703549086015F0800F29D067
:100A90002E4850F8240048F60F7108402B4941F8C1
:100AA00024004CB92A480078C00905D12A480078AA
:100AB00040F080002A490860012C0BD0254800EB4B
:100AC0004410806870B1234901EB44100121FFF705
:100AD000E1FD07E01F48C06A20B101211D48203018
:100AE000FFF7D8FD30BD00B51D480838006810F488
:100AF000806F07D0FFF757FD6FF480601849083901
:100B0000086022E016480838006810F4004F0CD046
:100B100013490839096801F00F00FFF739FF6FF436
:100B200000400F49083908600FE00D480838006898
:100B300010F4005F05D06FF40050094908390860CF
:100B400003E0002006490839086000BD005C004051
:100B50009F000020280000208800002010000020B6
:100B60004C5C004070B5064600F04EF8056806F192
:100B70000B0020F00704B4429CBF002070BD2B4640
:100B80006A68BAB11068A04210D304F10801884223
:100B90003CBF5068586007D3516810194160116814
:100BA000091B016058601460101D70BD1346526827
:100BB000002AE7D12146284600F02EF80028DED191
:100BC00070BD10B5431C02E010F8011B71B1810724
:100BD000FAD14FF0013202C88C1A8C4314EAC211C8
:100BE000F9D0C01A0A0603D0C01E10BDC01A10BD2D
:100BF0000A0401D0801E10BD0902FCD0401E10BDA9
:100C0000704770477047000000487047B0000020F0
:100C1000704770477047704738B504460A46002051
:100C20006946AFF30080002808BF38BD024600992E
:100C3000204600F067F8012038BD012000F07CB8A4
:100C4000F8B5AFF30080054600200C46102000BF29
:100C50000646A819A0420DD9324669460020AFF3D6
:100C60000080070008BF00F067F80098A04218BF96
:100C70000546C419FFF7C8FF05600746F01D20F0C0
:100C800007004619284600F00AF8B44208BFF8BD2C
:100C9000A21B31463868BDE8F84000F033B80021A7
:100CA0000160C0E9011070471020704770B504461C
:100CB000051FFFF7A9FF0068002C14BF446870BD32
:100CC000002C18BFAC423CBF20466468F8D30168D2
:100CD0000A18AA4218BF456003D12A680546114484
:100CE000016028684119A1421CBF6C6070BD616839
:100CF000696021680844286070BD000000487047A2
:100D0000A8000020034640688C46002818BF88428F
:100D10003CBF03464068F8D318681844884207D09F
:100D20000CF1030020F00700001D411A521A014681
:100D3000081D0A60FFF7BABF10B500F035F8BDE82E
:100D4000104000F02CB870477546FFF7D7FFAE464D
:100D500005006946534620F00700854618B020B5C7
:100D6000FFF724FABDE820404FF000064FF00007DF
:100D70004FF000084FF0000B21F00701AC46ACE843
:100D8000C009ACE8C009ACE8C009ACE8C0098D46B0
:100D900070470446AFF300802046FFF7F2F90028C1
:100DA00001D000F029B8704710B5012805D0002106
:100DB00003A000F027F8012010BD09A1F8E700000A
:100DC00053494752544D454D3A204F7574206F6634
:100DD0002068656170206D656D6F7279000000009C
:100DE0003A2048656170206D656D6F727920636F80
:100DF000727275707465640001491820ABBEFEE71D
:100E00002600020070B505460C460A2000E06D1C65
:100E100000F011F835B128780028F8D102E0641C00
:100E200000F009F814B120780028F8D1BDE870402E
:100E30000A20AFF3008008B569468DF80000032052
:100E4000ABBE08BD480F000800000020A80000004D
:100E500028010008F00F0008A8000020604C0000E6
:100E6000440100081201100102000008AAAAEDFEC8
:100E70000827010203010902430002010080320930
:100E800004000001020200040524001001052401F1
:100E90000001042402020524060001070581030A5B
:100EA000006409040100020A000005070582023EF1
:100EB0000000070502023E000000040309042A03A3
:100EC00053005A00200065006C0065006300740048
:100ED00072006F006E006900630073002000630001
:100EE0006F00720070002E001C035500530042007A
:100EF00020004600650065006400200050006F007F
:100F0000720074001A0330003100320033002D00EB
:100F100034003500360037002D0038003900160344
:100F2000430044004300200044006500760069004F
:100F300063006500120343004400430020004400A6
:100F4000610074006100000053544D33324631306B
:100F50003352425436000000000000000000000040
:100F60000000000000000000000000000000000081
:100F7000000000020800080000000000000000005F
:100F80000000000000000000000000000800000059
:100F9000010000060A000000000000000000000040
:100FA0000000000000000000000000000000000041
:100FB000020000003E003E000000000000000000B3
:100FC0000000000000000000000000000000000021
:100FD00000A1200000000002000000A1200000008D
:100FE00000020000000000000000000000000000FF
:04000005080000ED02
:00000001FF
